:100000000C9434000C9451000C9451000C94510049
:100010000C9451000C9451000C9451000C9451001C
:100020000C9451000C9451000C9451000C9451000C
:100030000C9451000C9451000C9451000C945100FC
:100040000C9451000C9451000C94A5010C94E40103
:100050000C9451000C9451000C9451000C945100DC
:100060000C9451000C94510011241FBECFEFD8E026
:10007000DEBFCDBF11E0A0E0B1E0EAECF4E002C0E9
:1000800005900D92AE30B107D9F721E0AEE0B1E0B6
:1000900001C01D92A234B207E1F70E9410020C9435
:1000A00063020C940000ECE7F0E0808180648083C0
:1000B000EAE7F0E0808183688083089597B121E0CA
:1000C00030E0082E01C0220F0A94EAF72095292378
:1000D00027B990917C00987F892B80937C00809138
:1000E0007A00806480937A0080917A0086FDFCCF4C
:1000F0008091780090917900089586B182FB8827DD
:1001000080F93399826034998460359988600895C4
:100110003A9A3B9A3C9A3D9A089580FF02C0429ACF
:1001200001C0429881FF02C0439A01C0439882FFF8
:1001300002C0449A01C0449883FF02C0459A0895C2
:1001400045980895CF93DF933A983B983C983D9813
:10015000299A289A0E947D0090E1899FE00111244C
:100160002898289A0E947D0028988C2BDF91CF91A7
:1001700008952A980C94A200CF93C82F0E9488005B
:100180002998289A8C2F82958F700E948D0028982C
:10019000289A8C2F0E948D0028980E94B90087FD14
:1001A000FCCFCF9108952A980C94BC002A9A0C9405
:1001B000BC0081E00C94D3000E948800229A209A0F
:1001C000219A2A9A289A299A8FE295E70197F1F7BE
:1001D00000C0000028982A982998289A83E00E9455
:1001E0008D00289887E090E20197F1F700C00000A9
:1001F000289A83E00E948D00289887EC90E0019770
:10020000F1F700C00000289A83E00E948D00289832
:1002100087EC90E00197F1F700C00000289A82E097
:100220000E948D00289887EC90E00197F1F700C0BC
:1002300000008FEF0E94D3008DEF0E94D3008CE06E
:100240000E94D30086E00E94D3000C94D900CF9383
:10025000DF93EC018991882319F00E94D600FACF30
:10026000DF91CF910895CF93DF93CDB7DEB761973C
:100270000FB6F894DEBF0FBECDBF4AE050E0BE011E
:100280006F5F7F4F0E9423020E94270161960FB685
:10029000F894DEBF0FBECDBFDF91CF910895CF930D
:1002A000DF93CDB7DEB761970FB6F894DEBF0FBE10
:1002B000CDBF40E150E0BE016F5F7F4F0E9423023F
:1002C0000E94270161960FB6F894DEBF0FBECDBF26
:1002D000DF91CF910895569A9093C5008093C40002
:1002E000E1ECF0E0808188618083E2ECF0E08081E5
:1002F0008660808308959091400180914101981714
:1003000069F0809141018F5F8F7180934101E0918D
:100310004101F0E0E15FFE4F8081089580E00895A3
:1003200090910E019F5F9F7020912F019217E1F332
:10033000E92FF0E0E05DFE4F808390930E01809105
:10034000C10080628093C10008951F920F920FB682
:100350000F9211242F933F934F935F936F937F934B
:100360008F939F93AF93BF93EF93FF9380E091E0C0
:100370000E9427012FEF89E698E1215080409040AC
:10038000E1F700C000008091C600E0914001EF5FFE
:10039000EF7190914101E91731F0E0934001F0E0F5
:1003A000E15FFE4F8083FF91EF91BF91AF919F91ED
:1003B0008F917F916F915F914F913F912F910F900E
:1003C0000FBE0F901F9018951F920F920FB60F92AD
:1003D00011248F939F93EF93FF9390910E0180913F
:1003E0002F01981779F080912F018F5F8F70809384
:1003F0002F01E0912F01F0E0E05DFE4F80818093BE
:10040000C60005C08091C1008F7D8093C100FF911F
:10041000EF919F918F910F900FBE0F901F901895A5
:10042000579A78940E94DC000E94D9008BB18058C2
:100430008BB92FEF89E698E1215080409040E1F799
:1004400000C00000F3CF4532510520F4423010F0D7
:100450000C942E02FB011082CB010895BB274A3079
:1004600031F4992322F4BDE2909581959F4F0C942D
:100470003A02BB27FB015527AA27880F991FAA1FFD
:10048000A41710F0A41B83955051B9F7A05DAA33AF
:1004900008F0A95DA193009779F7B111B19311927A
:1004A000CB010C945302DC01FC01672F719177237F
:1004B000E1F7329704C07C916D9370836291AE171F
:0A04C000BF07C8F30895F894FFCFBA
:0E04CA00676574696E20646174612E2E2E00C9
:00000001FF
